{
  "_format": "hh-sol-artifact-1",
  "contractName": "UniswapV2Oracle",
  "sourceName": "contracts/UniswapV2Oracle.sol",
  "abi": [
    {
      "inputs": [
        {
          "internalType": "address",
          "name": "_pair",
          "type": "address"
        },
        {
          "internalType": "address",
          "name": "_token",
          "type": "address"
        },
        {
          "internalType": "address",
          "name": "_priceFeed",
          "type": "address"
        },
        {
          "internalType": "uint256",
          "name": "_period",
          "type": "uint256"
        }
      ],
      "stateMutability": "nonpayable",
      "type": "constructor"
    },
    {
      "anonymous": false,
      "inputs": [
        {
          "indexed": true,
          "internalType": "address",
          "name": "previousOwner",
          "type": "address"
        },
        {
          "indexed": true,
          "internalType": "address",
          "name": "newOwner",
          "type": "address"
        }
      ],
      "name": "OwnershipTransferred",
      "type": "event"
    },
    {
      "anonymous": false,
      "inputs": [
        {
          "indexed": false,
          "internalType": "address",
          "name": "asset",
          "type": "address"
        },
        {
          "indexed": false,
          "internalType": "uint256",
          "name": "newPrice",
          "type": "uint256"
        }
      ],
      "name": "PriceUpdated",
      "type": "event"
    },
    {
      "anonymous": false,
      "inputs": [
        {
          "indexed": false,
          "internalType": "uint256",
          "name": "period",
          "type": "uint256"
        }
      ],
      "name": "UpdatePeriod",
      "type": "event"
    },
    {
      "inputs": [
        {
          "internalType": "uint256",
          "name": "_vol",
          "type": "uint256"
        },
        {
          "internalType": "uint256",
          "name": "_underlying",
          "type": "uint256"
        },
        {
          "internalType": "uint256",
          "name": "_time",
          "type": "uint256"
        }
      ],
      "name": "blackScholesEstimate",
      "outputs": [
        {
          "internalType": "uint256",
          "name": "estimate",
          "type": "uint256"
        }
      ],
      "stateMutability": "pure",
      "type": "function"
    },
    {
      "inputs": [
        {
          "internalType": "uint256",
          "name": "amountIn",
          "type": "uint256"
        }
      ],
      "name": "consult",
      "outputs": [
        {
          "internalType": "uint256",
          "name": "amountOut",
          "type": "uint256"
        }
      ],
      "stateMutability": "view",
      "type": "function"
    },
    {
      "inputs": [
        {
          "internalType": "uint256",
          "name": "amountIn",
          "type": "uint256"
        },
        {
          "internalType": "uint256",
          "name": "points",
          "type": "uint256"
        }
      ],
      "name": "daily",
      "outputs": [
        {
          "internalType": "uint256[]",
          "name": "",
          "type": "uint256[]"
        }
      ],
      "stateMutability": "view",
      "type": "function"
    },
    {
      "inputs": [],
      "name": "decimals",
      "outputs": [
        {
          "internalType": "uint8",
          "name": "",
          "type": "uint8"
        }
      ],
      "stateMutability": "view",
      "type": "function"
    },
    {
      "inputs": [],
      "name": "getPriceInUSD",
      "outputs": [
        {
          "internalType": "uint256",
          "name": "",
          "type": "uint256"
        }
      ],
      "stateMutability": "nonpayable",
      "type": "function"
    },
    {
      "inputs": [
        {
          "internalType": "uint256",
          "name": "amountIn",
          "type": "uint256"
        },
        {
          "internalType": "uint256",
          "name": "points",
          "type": "uint256"
        }
      ],
      "name": "hourly",
      "outputs": [
        {
          "internalType": "uint256[]",
          "name": "",
          "type": "uint256[]"
        }
      ],
      "stateMutability": "view",
      "type": "function"
    },
    {
      "inputs": [],
      "name": "lastObservation",
      "outputs": [
        {
          "components": [
            {
              "internalType": "uint32",
              "name": "timestamp",
              "type": "uint32"
            },
            {
              "internalType": "uint256",
              "name": "price0Cumulative",
              "type": "uint256"
            },
            {
              "internalType": "uint256",
              "name": "price1Cumulative",
              "type": "uint256"
            },
            {
              "internalType": "uint256",
              "name": "feedPrice",
              "type": "uint256"
            }
          ],
          "internalType": "struct UniswapV2Oracle.Observation",
          "name": "",
          "type": "tuple"
        }
      ],
      "stateMutability": "view",
      "type": "function"
    },
    {
      "inputs": [],
      "name": "observationLength",
      "outputs": [
        {
          "internalType": "uint256",
          "name": "",
          "type": "uint256"
        }
      ],
      "stateMutability": "view",
      "type": "function"
    },
    {
      "inputs": [
        {
          "internalType": "uint256",
          "name": "",
          "type": "uint256"
        }
      ],
      "name": "observations",
      "outputs": [
        {
          "internalType": "uint32",
          "name": "timestamp",
          "type": "uint32"
        },
        {
          "internalType": "uint256",
          "name": "price0Cumulative",
          "type": "uint256"
        },
        {
          "internalType": "uint256",
          "name": "price1Cumulative",
          "type": "uint256"
        },
        {
          "internalType": "uint256",
          "name": "feedPrice",
          "type": "uint256"
        }
      ],
      "stateMutability": "view",
      "type": "function"
    },
    {
      "inputs": [],
      "name": "owner",
      "outputs": [
        {
          "internalType": "address",
          "name": "",
          "type": "address"
        }
      ],
      "stateMutability": "view",
      "type": "function"
    },
    {
      "inputs": [],
      "name": "pair",
      "outputs": [
        {
          "internalType": "contract IUniswapV2Pair",
          "name": "",
          "type": "address"
        }
      ],
      "stateMutability": "view",
      "type": "function"
    },
    {
      "inputs": [],
      "name": "period",
      "outputs": [
        {
          "internalType": "uint256",
          "name": "",
          "type": "uint256"
        }
      ],
      "stateMutability": "view",
      "type": "function"
    },
    {
      "inputs": [],
      "name": "priceFeed",
      "outputs": [
        {
          "internalType": "contract AggregatorV3Interface",
          "name": "",
          "type": "address"
        }
      ],
      "stateMutability": "view",
      "type": "function"
    },
    {
      "inputs": [
        {
          "internalType": "uint256",
          "name": "amountIn",
          "type": "uint256"
        },
        {
          "internalType": "uint256",
          "name": "points",
          "type": "uint256"
        }
      ],
      "name": "prices",
      "outputs": [
        {
          "internalType": "uint256[]",
          "name": "",
          "type": "uint256[]"
        }
      ],
      "stateMutability": "view",
      "type": "function"
    },
    {
      "inputs": [
        {
          "internalType": "uint256",
          "name": "amountIn",
          "type": "uint256"
        },
        {
          "internalType": "uint256",
          "name": "granularity",
          "type": "uint256"
        }
      ],
      "name": "quote",
      "outputs": [
        {
          "internalType": "uint256",
          "name": "amountOut",
          "type": "uint256"
        }
      ],
      "stateMutability": "view",
      "type": "function"
    },
    {
      "inputs": [],
      "name": "renounceOwnership",
      "outputs": [],
      "stateMutability": "nonpayable",
      "type": "function"
    },
    {
      "inputs": [
        {
          "internalType": "uint256[]",
          "name": "_numbers",
          "type": "uint256[]"
        },
        {
          "internalType": "uint256",
          "name": "_underlying",
          "type": "uint256"
        },
        {
          "internalType": "uint256",
          "name": "_time",
          "type": "uint256"
        }
      ],
      "name": "retBasedBlackScholesEstimate",
      "outputs": [],
      "stateMutability": "pure",
      "type": "function"
    },
    {
      "inputs": [
        {
          "internalType": "uint256",
          "name": "amountIn",
          "type": "uint256"
        },
        {
          "internalType": "uint256",
          "name": "points",
          "type": "uint256"
        },
        {
          "internalType": "uint256",
          "name": "window",
          "type": "uint256"
        }
      ],
      "name": "sample",
      "outputs": [
        {
          "internalType": "uint256[]",
          "name": "",
          "type": "uint256[]"
        }
      ],
      "stateMutability": "view",
      "type": "function"
    },
    {
      "inputs": [
        {
          "internalType": "uint256",
          "name": "_period",
          "type": "uint256"
        }
      ],
      "name": "setPeriod",
      "outputs": [],
      "stateMutability": "nonpayable",
      "type": "function"
    },
    {
      "inputs": [
        {
          "internalType": "uint256",
          "name": "x",
          "type": "uint256"
        }
      ],
      "name": "sqrt",
      "outputs": [
        {
          "internalType": "uint256",
          "name": "",
          "type": "uint256"
        }
      ],
      "stateMutability": "pure",
      "type": "function"
    },
    {
      "inputs": [
        {
          "internalType": "uint256[]",
          "name": "numbers",
          "type": "uint256[]"
        }
      ],
      "name": "stddev",
      "outputs": [
        {
          "internalType": "uint256",
          "name": "sd",
          "type": "uint256"
        }
      ],
      "stateMutability": "pure",
      "type": "function"
    },
    {
      "inputs": [],
      "name": "token",
      "outputs": [
        {
          "internalType": "address",
          "name": "",
          "type": "address"
        }
      ],
      "stateMutability": "view",
      "type": "function"
    },
    {
      "inputs": [],
      "name": "token0",
      "outputs": [
        {
          "internalType": "address",
          "name": "",
          "type": "address"
        }
      ],
      "stateMutability": "view",
      "type": "function"
    },
    {
      "inputs": [],
      "name": "token1",
      "outputs": [
        {
          "internalType": "address",
          "name": "",
          "type": "address"
        }
      ],
      "stateMutability": "view",
      "type": "function"
    },
    {
      "inputs": [
        {
          "internalType": "address",
          "name": "newOwner",
          "type": "address"
        }
      ],
      "name": "transferOwnership",
      "outputs": [],
      "stateMutability": "nonpayable",
      "type": "function"
    },
    {
      "inputs": [],
      "name": "update",
      "outputs": [],
      "stateMutability": "nonpayable",
      "type": "function"
    },
    {
      "inputs": [],
      "name": "viewPriceInUSD",
      "outputs": [
        {
          "internalType": "uint256",
          "name": "",
          "type": "uint256"
        }
      ],
      "stateMutability": "view",
      "type": "function"
    },
    {
      "inputs": [
        {
          "internalType": "uint256",
          "name": "amountIn",
          "type": "uint256"
        },
        {
          "internalType": "uint256",
          "name": "points",
          "type": "uint256"
        }
      ],
      "name": "weekly",
      "outputs": [
        {
          "internalType": "uint256[]",
          "name": "",
          "type": "uint256[]"
        }
      ],
      "stateMutability": "view",
      "type": "function"
    }
  ],
  "bytecode": "0x6101406040523480156200001257600080fd5b5060405162002b6438038062002b64833981016040819052620000359162000a4e565b60006200004a6001600160e01b036200056616565b600080546001600160a01b0319166001600160a01b0383169081178255604051929350917f8be0079c531659141344cd1fd0a4f28419497f9722a3daafe3b4186f6b6457e0908290a350836001600160a01b03166080816001600160a01b031660601b815250506000846001600160a01b0316630dfe16816040518163ffffffff1660e01b815260040160206040518083038186803b158015620000ed57600080fd5b505afa15801562000102573d6000803e3d6000fd5b505050506040513d601f19601f8201168201806040525081019062000128919062000a30565b90506000856001600160a01b031663d21220a76040518163ffffffff1660e01b815260040160206040518083038186803b1580156200016657600080fd5b505afa1580156200017b573d6000803e3d6000fd5b505050506040513d601f19601f82011682018060405250810190620001a1919062000a30565b6001600160601b0319606084811b821660e05282901b166101005290506001600160a01b038581169083161480620001ea5750806001600160a01b0316856001600160a01b0316145b620002125760405162461bcd60e51b8152600401620002099062000b8e565b60405180910390fd5b846001600160a01b031660c0816001600160a01b031660601b81525050846001600160a01b031663313ce5676040518163ffffffff1660e01b815260040160206040518083038186803b1580156200026957600080fd5b505afa1580156200027e573d6000803e3d6000fd5b505050506040513d601f19601f82011682018060405250810190620002a4919062000b6b565b60ff166101208160ff1660f81b81525050600080876001600160a01b0316630902f1ac6040518163ffffffff1660e01b815260040160606040518083038186803b158015620002f257600080fd5b505afa15801562000307573d6000803e3d6000fd5b505050506040513d601f19601f820116820180604052508101906200032d919062000aa2565b5091509150816001600160701b03166000141580156200035557506001600160701b03811615155b620003745760405162461bcd60e51b8152600401620002099062000c79565b856001600160a01b031660a0816001600160a01b031660601b815250506000806000620003ac8b6200056a60201b620010c31760201c565b9250925092506000896001600160a01b031663feaf968c6040518163ffffffff1660e01b815260040160a06040518083038186803b158015620003ee57600080fd5b505afa15801562000403573d6000803e3d6000fd5b505050506040513d601f19601f8201168201806040525081019062000429919062000b15565b50506040805160808101825263ffffffff8781168252602082018a81528284018a815260608401878152600380546001808201835560009290925295517fc2575a0e9e593c00f959f8c92f12db2869c3395a3b0502d05e2516446f71f85b6004909702968701805463ffffffff1916919096161790945591517fc2575a0e9e593c00f959f8c92f12db2869c3395a3b0502d05e2516446f71f85c850155517fc2575a0e9e593c00f959f8c92f12db2869c3395a3b0502d05e2516446f71f85d840155517fc2575a0e9e593c00f959f8c92f12db2869c3395a3b0502d05e2516446f71f85e909201919091558d9055519193507fd1c043d38a3243c01780647a1340049807cd98af891021c89c32c99a8e0c59e792506200054c918c915062000cb0565b60405180910390a150505050505050505050505062000cd2565b3390565b60008080620005816001600160e01b036200079a16565b9050836001600160a01b0316635909c0d56040518163ffffffff1660e01b815260040160206040518083038186803b158015620005bd57600080fd5b505afa158015620005d2573d6000803e3d6000fd5b505050506040513d601f19601f82011682018060405250810190620005f8919062000afc565b9250836001600160a01b0316635a3d54936040518163ffffffff1660e01b815260040160206040518083038186803b1580156200063457600080fd5b505afa15801562000649573d6000803e3d6000fd5b505050506040513d601f19601f820116820180604052508101906200066f919062000afc565b91506000806000866001600160a01b0316630902f1ac6040518163ffffffff1660e01b815260040160606040518083038186803b158015620006b057600080fd5b505afa158015620006c5573d6000803e3d6000fd5b505050506040513d601f19601f82011682018060405250810190620006eb919062000aa2565b9250925092508363ffffffff168163ffffffff16146200079057600081850390508063ffffffff166200073c846001600160701b0316866001600160701b0316620007a460201b620015701760201c565b600001516001600160e01b031602870196508063ffffffff166200077e856001600160701b0316856001600160701b0316620007a460201b620015701760201c565b516001600160e01b0316029590950194505b5050509193909250565b63ffffffff421690565b620007ae620009ee565b60008211620007d15760405162461bcd60e51b8152600401620002099062000bc5565b82620007ed5750604080516020810190915260008152620008a4565b6001600160901b0383116200085a57600082607085901b816200080c57fe5b0490506001600160e01b03811115620008395760405162461bcd60e51b8152600401620002099062000c42565b6040518060200160405280826001600160e01b0316815250915050620008a4565b60006200087884600160701b85620008aa60201b620016691760201c565b90506001600160e01b03811115620008395760405162461bcd60e51b8152600401620002099062000c42565b92915050565b60008080620008c386866001600160e01b036200094d16565b9150915060008480620008d257fe5b868809905082811115620008e7576001820391505b9182900391816200090857848381620008fc57fe5b04935050505062000946565b8482106200092a5760405162461bcd60e51b8152600401620002099062000c0b565b620009408383876001600160e01b036200097b16565b93505050505b9392505050565b600080806000198486099050838502925082810391508281101562000973576001820391505b509250929050565b600081810382168083816200098c57fe5b0492508085816200099957fe5b049450808160000381620009a957fe5b60028581038087028203028087028203028087028203028087028203028087028203028087028203029586029003909402930460010193909302939093010292915050565b60408051602081019091526000815290565b80516001600160a01b0381168114620008a457600080fd5b80516001600160501b0381168114620008a457600080fd5b60006020828403121562000a42578081fd5b62000946838362000a00565b6000806000806080858703121562000a64578283fd5b62000a70868662000a00565b935062000a81866020870162000a00565b925062000a92866040870162000a00565b6060959095015193969295505050565b60008060006060848603121562000ab7578283fd5b835162000ac48162000cb9565b602085015190935062000ad78162000cb9565b604085015190925063ffffffff8116811462000af1578182fd5b809150509250925092565b60006020828403121562000b0e578081fd5b5051919050565b600080600080600060a0868803121562000b2d578081fd5b62000b39878762000a18565b945060208601519350604086015192506060860151915062000b5f876080880162000a18565b90509295509295909350565b60006020828403121562000b7d578081fd5b815160ff8116811462000946578182fd5b6020808252601e908201527f556e697377617056324f7261636c653a20494e56414c49445f544f4b454e0000604082015260600190565b60208082526026908201527f4669786564506f696e743a3a6672616374696f6e3a206469766973696f6e206260408201526579207a65726f60d01b606082015260800190565b6020808252601a908201527f46756c6c4d6174683a2046554c4c4449565f4f564552464c4f57000000000000604082015260600190565b6020808252601e908201527f4669786564506f696e743a3a6672616374696f6e3a206f766572666c6f770000604082015260600190565b6020808252601c908201527f556e697377617056324f7261636c653a204e4f5f524553455256455300000000604082015260600190565b90815260200190565b6001600160701b038116811462000ccf57600080fd5b50565b60805160601c60a05160601c60c05160601c60e05160601c6101005160601c6101205160f81c611ddc62000d88600039806104cd5280610bb05280611052525080610645528061088f5280610b7c5280610eb55250806103c0528061051552806108195280610dbe52508061053f528061066f528061084352806108b95280610c065280610d925280610edf5280610fa15250806109e8528061132f52508061075e5280610b5852806112eb5250611ddc6000f3fe608060405234801561001057600080fd5b50600436106101c45760003560e01c80638373a7ab116100f9578063e2a6f54711610097578063f2fde38b11610071578063f2fde38b14610369578063f4ecfcef1461037c578063f55fa17f1461038f578063fc0c546a14610397576101c4565b8063e2a6f54714610346578063ebeb31db14610359578063ef78d4fd14610361576101c4565b8063a2e62045116100d3578063a2e6204514610326578063a8aa1b311461032e578063d21220a714610336578063e1aa60361461033e576101c4565b80638373a7ab146102f65780638a7b8cf2146103095780638da5cb5b1461031e576101c4565b80634411935e116101665780636ba0f64d116101405780636ba0f64d146102c0578063715018a6146102d3578063741bef1a146102db5780638226613b146102e3576101c4565b80634411935e1461028757806361e25d831461029a578063677342ce146102ad576101c4565b806323fe1e96116101a257806323fe1e961461020f578063252c09d71461022f578063313ce56714610252578063315f1a4114610267576101c4565b8063064141e5146101c95780630dfe1681146101de5780630f3a9f65146101fc575b600080fd5b6101dc6101d73660046118e1565b61039f565b005b6101e66103be565b6040516101f39190611a4e565b60405180910390f35b6101dc61020a366004611981565b6103e2565b61022261021d3660046119b1565b61046a565b6040516101f39190611a7b565b61024261023d366004611981565b61048d565b6040516101f39493929190611d7f565b61025a6104cb565b6040516101f39190611da2565b61027a6102753660046119b1565b6104ef565b6040516101f39190611d76565b61027a6102953660046119d2565b610724565b61027a6102a8366004611981565b610740565b61027a6102bb366004611981565b610909565b6102226102ce3660046119b1565b61093b565b6101dc610950565b6101e66109e6565b6102226102f13660046119b1565b610a0a565b61027a6103043660046118a6565b610a1f565b610311610aba565b6040516101f39190611d45565b6101e6610b21565b6101dc610b30565b6101e6610b56565b6101e6610b7a565b61027a610b9e565b6102226103543660046119b1565b610c41565b61027a610c4f565b61027a610c55565b6101dc61037736600461187f565b610c5b565b61022261038a3660046119d2565b610d28565b61027a610f99565b6101e6610f9f565b60006103aa84610a1f565b90506103b7818484610724565b5050505050565b7f000000000000000000000000000000000000000000000000000000000000000081565b6103ea610fc3565b6001600160a01b03166103fb610b21565b6001600160a01b03161461042a5760405162461bcd60e51b815260040161042190611cd9565b60405180910390fd5b60018190556040517fd1c043d38a3243c01780647a1340049807cd98af891021c89c32c99a8e0c59e79061045f908390611d76565b60405180910390a150565b60606104848383600154610e108161047e57fe5b04610d28565b90505b92915050565b6003818154811061049a57fe5b6000918252602090912060049091020180546001820154600283015460039093015463ffffffff9092169350919084565b7f000000000000000000000000000000000000000000000000000000000000000081565b6003546000908190600019018161050c828663ffffffff610fc716565b905060008090507f00000000000000000000000000000000000000000000000000000000000000006001600160a01b03167f00000000000000000000000000000000000000000000000000000000000000006001600160a01b03161415610643575b8282101561063e5781600101905061062f6003838154811061058c57fe5b906000526020600020906004020160010154600383815481106105ab57fe5b906000526020600020906004020160010154600384815481106105ca57fe5b9060005260206000209060040201600301548a600387815481106105ea57fe5b60009182526020909120600490910201546003805463ffffffff909216918890811061061257fe5b600091825260209091206004909102015463ffffffff1603610fef565b9093019260019091019061056e565b610709565b7f00000000000000000000000000000000000000000000000000000000000000006001600160a01b03167f00000000000000000000000000000000000000000000000000000000000000006001600160a01b03161415610709575b82821015610709578160010190506106fa600383815481106106bc57fe5b906000526020600020906004020160020154600383815481106106db57fe5b906000526020600020906004020160020154600384815481106105ca57fe5b9093019260019091019061069e565b610719848763ffffffff61109116565b979650505050505050565b600061072f82610909565b8484020260280290505b9392505050565b600061074a61177f565b610752610aba565b905060008060006107827f00000000000000000000000000000000000000000000000000000000000000006110c3565b925092509250836000015163ffffffff168163ffffffff1614156107fc576003805460011981019081106107b257fe5b6000918252602091829020604080516080810182526004909302909101805463ffffffff168352600181015493830193909352600283015490820152600390910154606082015293505b8351810363ffffffff8116156108125780610815565b60015b90507f00000000000000000000000000000000000000000000000000000000000000006001600160a01b03167f00000000000000000000000000000000000000000000000000000000000000006001600160a01b0316141561088d5761088685602001518587606001518a85610fef565b95506108ff565b7f00000000000000000000000000000000000000000000000000000000000000006001600160a01b03167f00000000000000000000000000000000000000000000000000000000000000006001600160a01b031614156108ff576108fc85604001518487606001518a85610fef565b95505b5050505050919050565b600060026001830104825b8082101561073957508060028180868161092a57fe5b04018161093357fe5b049150610914565b6060610484838360015462093a808161047e57fe5b610958610fc3565b6001600160a01b0316610969610b21565b6001600160a01b03161461098f5760405162461bcd60e51b815260040161042190611cd9565b600080546040516001600160a01b03909116907f8be0079c531659141344cd1fd0a4f28419497f9722a3daafe3b4186f6b6457e0908390a36000805473ffffffffffffffffffffffffffffffffffffffff19169055565b7f000000000000000000000000000000000000000000000000000000000000000081565b60606104848383600154620151808161047e57fe5b600080805b8351811015610a5257838181518110610a3957fe5b6020026020010151820191508080600101915050610a24565b50600083518281610a5f57fe5b60009350049050815b8451811015610a9b57600282868381518110610a8057fe5b6020026020010151030a830192508080600101915050610a68565b610ab160018651038481610aab57fe5b04610909565b95945050505050565b610ac261177f565b600380546000198101908110610ad457fe5b6000918252602091829020604080516080810182526004909302909101805463ffffffff168352600181015493830193909352600283015490820152600390910154606082015290505b90565b6000546001600160a01b031690565b610b386112cd565b610b545760405162461bcd60e51b815260040161042190611c1e565b565b7f000000000000000000000000000000000000000000000000000000000000000081565b7f000000000000000000000000000000000000000000000000000000000000000081565b6000610ba86112cd565b506000610bda7f000000000000000000000000000000000000000000000000000000000000000060ff16600a0a610740565b9050806002819055507f0d86730737b142fc160892fa8a0f2db687a92a0e294d1ad70624cf5acef03b847f000000000000000000000000000000000000000000000000000000000000000082604051610c34929190611a62565b60405180910390a1905090565b606061048483836001610d28565b60035490565b60015481565b610c63610fc3565b6001600160a01b0316610c74610b21565b6001600160a01b031614610c9a5760405162461bcd60e51b815260040161042190611cd9565b6001600160a01b038116610cc05760405162461bcd60e51b815260040161042190611abf565b600080546040516001600160a01b03808516939216917f8be0079c531659141344cd1fd0a4f28419497f9722a3daafe3b4186f6b6457e091a36000805473ffffffffffffffffffffffffffffffffffffffff19166001600160a01b0392909216919091179055565b6060808367ffffffffffffffff81118015610d4257600080fd5b50604051908082528060200260200182016040528015610d6c578160200160208202803683370190505b50600354909150600019016000610d8b8287870263ffffffff610fc716565b90506000807f00000000000000000000000000000000000000000000000000000000000000006001600160a01b039081167f0000000000000000000000000000000000000000000000000000000000000000919091161415610eb3575b83831015610eae578683019150610e8b60038481548110610e0557fe5b90600052602060002090600402016001015460038481548110610e2457fe5b90600052602060002090600402016001015460038581548110610e4357fe5b9060005260206000209060040201600301548c60038881548110610e6357fe5b60009182526020909120600490910201546003805463ffffffff909216918990811061061257fe5b858281518110610e9757fe5b602090810291909101015291860191600101610de8565b610f8c565b7f00000000000000000000000000000000000000000000000000000000000000006001600160a01b03167f00000000000000000000000000000000000000000000000000000000000000006001600160a01b03161415610f8c575b83831015610f8c578683019150610f6960038481548110610f2b57fe5b90600052602060002090600402016002015460038481548110610f4a57fe5b90600052602060002090600402016002015460038581548110610e4357fe5b858281518110610f7557fe5b602090810291909101015291860191600101610f0e565b5092979650505050505050565b60025490565b7f000000000000000000000000000000000000000000000000000000000000000081565b3390565b600082821115610fe95760405162461bcd60e51b815260040161042190611b53565b50900390565b6000610ff96117ad565b60405180602001604052808463ffffffff168989038161101557fe5b046001600160e01b03169052905061103561103082866114c6565b611525565b71ffffffffffffffffffffffffffffffffffff16915061071960ff7f000000000000000000000000000000000000000000000000000000000000000016600a0a611085848863ffffffff61152c16565b9063ffffffff61109116565b60008082116110b25760405162461bcd60e51b815260040161042190611b8a565b8183816110bb57fe5b049392505050565b60008060006110d0611566565b9050836001600160a01b0316635909c0d56040518163ffffffff1660e01b815260040160206040518083038186803b15801561110b57600080fd5b505afa15801561111f573d6000803e3d6000fd5b505050506040513d601f19601f820116820180604052508101906111439190611999565b9250836001600160a01b0316635a3d54936040518163ffffffff1660e01b815260040160206040518083038186803b15801561117e57600080fd5b505afa158015611192573d6000803e3d6000fd5b505050506040513d601f19601f820116820180604052508101906111b69190611999565b91506000806000866001600160a01b0316630902f1ac6040518163ffffffff1660e01b815260040160606040518083038186803b1580156111f657600080fd5b505afa15801561120a573d6000803e3d6000fd5b505050506040513d601f19601f8201168201806040525081019061122e919061192d565b9250925092508363ffffffff168163ffffffff16146112c35780840363ffffffff811661126e6dffffffffffffffffffffffffffff808616908716611570565b600001516001600160e01b031602870196508063ffffffff166112b1856dffffffffffffffffffffffffffff16856dffffffffffffffffffffffffffff16611570565b516001600160e01b0316029590950194505b5050509193909250565b60006112d761177f565b6112df610aba565b9050600080600061130f7f00000000000000000000000000000000000000000000000000000000000000006110c3565b8651600154939650919450925082039063ffffffff8216106114b85760007f00000000000000000000000000000000000000000000000000000000000000006001600160a01b031663feaf968c6040518163ffffffff1660e01b815260040160a06040518083038186803b15801561138657600080fd5b505afa15801561139a573d6000803e3d6000fd5b505050506040513d601f19601f820116820180604052508101906113be91906119fd565b50506040805160808101825263ffffffff978816815260208101998a5290810197885260608101928352600380546001808201835560009290925291517fc2575a0e9e593c00f959f8c92f12db2869c3395a3b0502d05e2516446f71f85b6004909302928301805463ffffffff1916919099161790975597517fc2575a0e9e593c00f959f8c92f12db2869c3395a3b0502d05e2516446f71f85c8901555094517fc2575a0e9e593c00f959f8c92f12db2869c3395a3b0502d05e2516446f71f85d870155505091517fc2575a0e9e593c00f959f8c92f12db2869c3395a3b0502d05e2516446f71f85e90930192909255509150610b1e9050565b600095505050505050610b1e565b6114ce6117bf565b60008215806114f457505082516001600160e01b0316828102908382816114f157fe5b04145b6115105760405162461bcd60e51b815260040161042190611b1c565b60408051602081019091529081529392505050565b5160701c90565b60008261153b57506000610487565b8282028284828161154857fe5b04146104845760405162461bcd60e51b815260040161042190611c61565b63ffffffff421690565b6115786117ad565b600082116115985760405162461bcd60e51b815260040161042190611bc1565b826115b25750604080516020810190915260008152610487565b71ffffffffffffffffffffffffffffffffffff831161162457600082607085901b816115da57fe5b0490506001600160e01b038111156116045760405162461bcd60e51b815260040161042190611d0e565b6040518060200160405280826001600160e01b0316815250915050610487565b6000611640846e01000000000000000000000000000085611669565b90506001600160e01b038111156116045760405162461bcd60e51b815260040161042190611d0e565b600080600061167886866116e2565b915091506000848061168657fe5b86880990508281111561169a576001820391505b9182900391816116b8578483816116ad57fe5b049350505050610739565b8482106116d75760405162461bcd60e51b815260040161042190611ca2565b61071983838761170f565b6000808060001984860990508385029250828103915082811015611707576001820391505b509250929050565b6000818103821680838161171f57fe5b04925080858161172b57fe5b04945080816000038161173a57fe5b60028581038087028203028087028203028087028203028087028203028087028203028087028203029586029003909402930460010193909302939093010292915050565b6040518060800160405280600063ffffffff1681526020016000815260200160008152602001600081525090565b60408051602081019091526000815290565b6040518060200160405280600081525090565b600082601f8301126117e2578081fd5b813567ffffffffffffffff808211156117f9578283fd5b602080830260405182828201018181108582111715611816578687fd5b60405284815294508185019250858201818701830188101561183757600080fd5b600091505b8482101561185a57803584529282019260019190910190820161183c565b505050505092915050565b805169ffffffffffffffffffff8116811461048757600080fd5b600060208284031215611890578081fd5b81356001600160a01b0381168114610484578182fd5b6000602082840312156118b7578081fd5b813567ffffffffffffffff8111156118cd578182fd5b6118d9848285016117d2565b949350505050565b6000806000606084860312156118f5578182fd5b833567ffffffffffffffff81111561190b578283fd5b611917868287016117d2565b9660208601359650604090950135949350505050565b600080600060608486031215611941578283fd5b835161194c81611db0565b602085015190935061195d81611db0565b604085015190925063ffffffff81168114611976578182fd5b809150509250925092565b600060208284031215611992578081fd5b5035919050565b6000602082840312156119aa578081fd5b5051919050565b600080604083850312156119c3578182fd5b50508035926020909101359150565b6000806000606084860312156119e6578283fd5b505081359360208301359350604090920135919050565b600080600080600060a08688031215611a14578081fd5b611a1e8787611865565b9450602086015193506040860151925060608601519150611a428760808801611865565b90509295509295909350565b6001600160a01b0391909116815260200190565b6001600160a01b03929092168252602082015260400190565b6020808252825182820181905260009190848201906040850190845b81811015611ab357835183529284019291840191600101611a97565b50909695505050505050565b60208082526026908201527f4f776e61626c653a206e6577206f776e657220697320746865207a65726f206160408201527f6464726573730000000000000000000000000000000000000000000000000000606082015260800190565b60208082526019908201527f4669786564506f696e743a3a6d756c3a206f766572666c6f7700000000000000604082015260600190565b6020808252601e908201527f536166654d6174683a207375627472616374696f6e206f766572666c6f770000604082015260600190565b6020808252601a908201527f536166654d6174683a206469766973696f6e206279207a65726f000000000000604082015260600190565b60208082526026908201527f4669786564506f696e743a3a6672616374696f6e3a206469766973696f6e206260408201527f79207a65726f0000000000000000000000000000000000000000000000000000606082015260800190565b60208082526023908201527f556e697377617056324f7261636c653a20504552494f445f4e4f545f454c415060408201526214d15160ea1b606082015260800190565b60208082526021908201527f536166654d6174683a206d756c7469706c69636174696f6e206f766572666c6f6040820152607760f81b606082015260800190565b6020808252601a908201527f46756c6c4d6174683a2046554c4c4449565f4f564552464c4f57000000000000604082015260600190565b6020808252818101527f4f776e61626c653a2063616c6c6572206973206e6f7420746865206f776e6572604082015260600190565b6020808252601e908201527f4669786564506f696e743a3a6672616374696f6e3a206f766572666c6f770000604082015260600190565b815163ffffffff16815260208083015190820152604080830151908201526060918201519181019190915260800190565b90815260200190565b63ffffffff94909416845260208401929092526040830152606082015260800190565b60ff91909116815260200190565b6dffffffffffffffffffffffffffff81168114611dcc57600080fd5b5056fea164736f6c6343000606000a",
  "linkReferences": {},
  "deployedLinkReferences": {}
}